{
  "abi": [
    {
      "type": "constructor",
      "inputs": [],
      "stateMutability": "nonpayable"
    },
    {
      "type": "function",
      "name": "appoint",
      "inputs": [
        {
          "name": "newOfficiant",
          "type": "address",
          "internalType": "address"
        }
      ],
      "outputs": [],
      "stateMutability": "nonpayable"
    },
    {
      "type": "function",
      "name": "carve",
      "inputs": [
        {
          "name": "carvingId",
          "type": "bytes32",
          "internalType": "bytes32"
        },
        {
          "name": "carvingTo",
          "type": "string",
          "internalType": "string"
        },
        {
          "name": "carvingFrom",
          "type": "string",
          "internalType": "string"
        },
        {
          "name": "carvingMessage",
          "type": "string",
          "internalType": "string"
        },
        {
          "name": "carvingProperties",
          "type": "bytes31",
          "internalType": "bytes31"
        }
      ],
      "outputs": [],
      "stateMutability": "nonpayable"
    },
    {
      "type": "function",
      "name": "dismiss",
      "inputs": [
        {
          "name": "officiant",
          "type": "address",
          "internalType": "address"
        }
      ],
      "outputs": [],
      "stateMutability": "nonpayable"
    },
    {
      "type": "function",
      "name": "gallery",
      "inputs": [
        {
          "name": "",
          "type": "uint256",
          "internalType": "uint256"
        }
      ],
      "outputs": [
        {
          "name": "",
          "type": "bytes32",
          "internalType": "bytes32"
        }
      ],
      "stateMutability": "view"
    },
    {
      "type": "function",
      "name": "hide",
      "inputs": [
        {
          "name": "carvingId",
          "type": "bytes32",
          "internalType": "bytes32"
        }
      ],
      "outputs": [],
      "stateMutability": "nonpayable"
    },
    {
      "type": "function",
      "name": "officiants",
      "inputs": [
        {
          "name": "",
          "type": "address",
          "internalType": "address"
        }
      ],
      "outputs": [
        {
          "name": "",
          "type": "bool",
          "internalType": "bool"
        }
      ],
      "stateMutability": "view"
    },
    {
      "type": "function",
      "name": "peruse",
      "inputs": [],
      "outputs": [
        {
          "name": "galleryIds",
          "type": "bytes32[]",
          "internalType": "bytes32[]"
        }
      ],
      "stateMutability": "view"
    },
    {
      "type": "function",
      "name": "publicize",
      "inputs": [
        {
          "name": "carvingId",
          "type": "bytes32",
          "internalType": "bytes32"
        }
      ],
      "outputs": [],
      "stateMutability": "nonpayable"
    },
    {
      "type": "function",
      "name": "read",
      "inputs": [
        {
          "name": "carvingId",
          "type": "bytes32",
          "internalType": "bytes32"
        }
      ],
      "outputs": [
        {
          "name": "carvingTo",
          "type": "string",
          "internalType": "string"
        },
        {
          "name": "carvingFrom",
          "type": "string",
          "internalType": "string"
        },
        {
          "name": "carvingMessage",
          "type": "string",
          "internalType": "string"
        },
        {
          "name": "carvingProperties",
          "type": "bytes31",
          "internalType": "bytes31"
        }
      ],
      "stateMutability": "view"
    },
    {
      "type": "function",
      "name": "scratch",
      "inputs": [
        {
          "name": "carvingId",
          "type": "bytes32",
          "internalType": "bytes32"
        }
      ],
      "outputs": [],
      "stateMutability": "nonpayable"
    },
    {
      "type": "event",
      "name": "CarvingDeleted",
      "inputs": [
        {
          "name": "carvingId",
          "type": "bytes32",
          "indexed": true,
          "internalType": "bytes32"
        }
      ],
      "anonymous": false
    },
    {
      "type": "event",
      "name": "CarvingHidden",
      "inputs": [
        {
          "name": "carvingId",
          "type": "bytes32",
          "indexed": true,
          "internalType": "bytes32"
        }
      ],
      "anonymous": false
    },
    {
      "type": "event",
      "name": "CarvingPublicized",
      "inputs": [
        {
          "name": "carvingId",
          "type": "bytes32",
          "indexed": true,
          "internalType": "bytes32"
        }
      ],
      "anonymous": false
    },
    {
      "type": "event",
      "name": "CarvingStored",
      "inputs": [
        {
          "name": "carvingId",
          "type": "bytes32",
          "indexed": true,
          "internalType": "bytes32"
        },
        {
          "name": "to",
          "type": "string",
          "indexed": false,
          "internalType": "string"
        },
        {
          "name": "from",
          "type": "string",
          "indexed": false,
          "internalType": "string"
        },
        {
          "name": "message",
          "type": "string",
          "indexed": false,
          "internalType": "string"
        },
        {
          "name": "properties",
          "type": "bytes31",
          "indexed": false,
          "internalType": "bytes31"
        }
      ],
      "anonymous": false
    },
    {
      "type": "error",
      "name": "CannotDismissSelf",
      "inputs": []
    },
    {
      "type": "error",
      "name": "CarvingAlreadyPublished",
      "inputs": []
    },
    {
      "type": "error",
      "name": "CarvingExists",
      "inputs": []
    },
    {
      "type": "error",
      "name": "CarvingNotFound",
      "inputs": []
    },
    {
      "type": "error",
      "name": "CarvingNotInGallery",
      "inputs": []
    },
    {
      "type": "error",
      "name": "MessageCannotBeEmpty",
      "inputs": []
    },
    {
      "type": "error",
      "name": "NotOfficiant",
      "inputs": []
    }
  ],
  "bytecode": {
    "object": "0x608060405234801561000f575f80fd5b50335f908152600260205260409020805460ff191660011790556113f7806100365f395ff3fe608060405234801561000f575f80fd5b50600436106100b9575f3560e01c806361da143911610072578063e1d2a6ea11610058578063e1d2a6ea1461016d578063e7bdd0bf1461019f578063fefe71e8146101b2575f80fd5b806361da143914610129578063db978ca51461014c575f80fd5b806337f1a470116100a257806337f1a470146100f057806358e8600d146101035780635ed78ed614610116575f80fd5b8063098e0770146100bd5780631bda74b2146100d2575b5f80fd5b6100d06100cb366004610e29565b6101c5565b005b6100da610462565b6040516100e79190610efc565b60405180910390f35b6100d06100fe366004610f3f565b6104b8565b6100d0610111366004610f79565b61054e565b6100d0610124366004610f79565b6106db565b61013c610137366004610f79565b6108d4565b6040516100e79493929190610ff1565b61015f61015a366004610f79565b610b81565b6040519081526020016100e7565b61018f61017b366004610f3f565b60026020525f908152604090205460ff1681565b60405190151581526020016100e7565b6100d06101ad366004610f3f565b610ba0565b6100d06101c0366004610f79565b610c82565b335f9081526002602052604090205460ff1661020d576040517fd21a840800000000000000000000000000000000000000000000000000000000815260040160405180910390fd5b5f829003610247576040517fc1287c4300000000000000000000000000000000000000000000000000000000815260040160405180910390fd5b5f8881526020819052604081205460ff1660038111156102695761026961105d565b146102a0576040517fe931378c00000000000000000000000000000000000000000000000000000000815260040160405180910390fd5b6040805160a0810190915280600181526020018260ff1916815260200188888080601f0160208091040260200160405190810160405280939291908181526020018383808284375f92019190915250505090825250604080516020601f8901819004810282018101909252878152918101919088908890819084018382808284375f92019190915250505090825250604080516020601f8701819004810282018101909252858152918101919086908690819084018382808284375f9201829052509390945250508a8152602081905260409020825181549192509082907fffffffffffffffffffffffffffffffffffffffffffffffffffffffffffffff001660018360038111156103b4576103b461105d565b02179055506020820151815460089190911c6101000260ff909116178155604082015160018201906103e69082611154565b50606082015160028201906103fb9082611154565b50608082015160038201906104109082611154565b50905050877f87dcd72033ebb79c82d606f3cebb0dd1c6b2777a4740bec93465a9b8b44fa5b18888888888888860405161045097969594939291906112b7565b60405180910390a25050505050505050565b606060018054806020026020016040519081016040528092919081815260200182805480156104ae57602002820191905f5260205f20905b81548152602001906001019080831161049a575b5050505050905090565b335f9081526002602052604090205460ff16610500576040517fd21a840800000000000000000000000000000000000000000000000000000000815260040160405180910390fd5b73ffffffffffffffffffffffffffffffffffffffff165f90815260026020526040902080547fffffffffffffffffffffffffffffffffffffffffffffffffffffffffffffff00166001179055565b335f9081526002602052604090205460ff16610596576040517fd21a840800000000000000000000000000000000000000000000000000000000815260040160405180910390fd5b60025f8281526020819052604090205460ff1660038111156105ba576105ba61105d565b036105f1576040517f6fe2a53400000000000000000000000000000000000000000000000000000000815260040160405180910390fd5b60015f8281526020819052604090205460ff1660038111156106155761061561105d565b1461064c576040517f7fc0658a00000000000000000000000000000000000000000000000000000000815260040160405180910390fd5b600180548082019091557fb10e2d527612073b26eecdfd717e6a320cf44b4afac2b0732d9fcbe2b7fa0cf6018190555f8181526020819052604080822080547fffffffffffffffffffffffffffffffffffffffffffffffffffffffffffffff001660021790555182917fc778bfccc786544197788f2e8340dabc434fd7b2f848e4438a06c7a8b4409e2291a250565b335f9081526002602052604090205460ff16610723576040517fd21a840800000000000000000000000000000000000000000000000000000000815260040160405180910390fd5b60025f8281526020819052604090205460ff1660038111156107475761074761105d565b1461077e576040517f5e4d39f900000000000000000000000000000000000000000000000000000000815260040160405180910390fd5b5f5b6001548110156108a157816001828154811061079e5761079e611329565b905f5260205f2001540361089957600180546107bb908290611356565b815481106107cb576107cb611329565b905f5260205f200154600182815481106107e7576107e7611329565b5f91825260209091200155600180548061080357610803611394565b5f82815260208082207fffffffffffffffffffffffffffffffffffffffffffffffffffffffffffffffff9084018101839055909201909255838252819052604080822080547fffffffffffffffffffffffffffffffffffffffffffffffffffffffffffffff001660011790555183917fa32f4e0c54fde0bb877f983bfebc93952dbab5d27ae8fe7df71303f97dc71c1691a25050565b600101610780565b506040517f7fc0658a00000000000000000000000000000000000000000000000000000000815260040160405180910390fd5b606080805f805f8681526020819052604090205460ff1660038111156108fc576108fc61105d565b03610933576040517f7fc0658a00000000000000000000000000000000000000000000000000000000815260040160405180910390fd5b5f85815260208190526040808220815160a081019092528054829060ff1660038111156109625761096261105d565b60038111156109735761097361105d565b81528154610100900460081b7fffffffffffffffffffffffffffffffffffffffffffffffffffffffffffffff001660208201526001820180546040909201916109bb906110b7565b80601f01602080910402602001604051908101604052809291908181526020018280546109e7906110b7565b8015610a325780601f10610a0957610100808354040283529160200191610a32565b820191905f5260205f20905b815481529060010190602001808311610a1557829003601f168201915b50505050508152602001600282018054610a4b906110b7565b80601f0160208091040260200160405190810160405280929190818152602001828054610a77906110b7565b8015610ac25780601f10610a9957610100808354040283529160200191610ac2565b820191905f5260205f20905b815481529060010190602001808311610aa557829003601f168201915b50505050508152602001600382018054610adb906110b7565b80601f0160208091040260200160405190810160405280929190818152602001828054610b07906110b7565b8015610b525780601f10610b2957610100808354040283529160200191610b52565b820191905f5260205f20905b815481529060010190602001808311610b3557829003601f168201915b505050505081525050905080604001518160600151826080015183602001519450945094509450509193509193565b60018181548110610b90575f80fd5b5f91825260209091200154905081565b335f9081526002602052604090205460ff16610be8576040517fd21a840800000000000000000000000000000000000000000000000000000000815260040160405180910390fd5b3373ffffffffffffffffffffffffffffffffffffffff821603610c37576040517f7d33962600000000000000000000000000000000000000000000000000000000815260040160405180910390fd5b73ffffffffffffffffffffffffffffffffffffffff165f90815260026020526040902080547fffffffffffffffffffffffffffffffffffffffffffffffffffffffffffffff00169055565b335f9081526002602052604090205460ff16610cca576040517fd21a840800000000000000000000000000000000000000000000000000000000815260040160405180910390fd5b6040805160a0810190915280600381525f60208083018290526040805180830182528381528185015280518083018252838152606085015280518083018252838152608090940193909352848252819052208151815482907fffffffffffffffffffffffffffffffffffffffffffffffffffffffffffffff00166001836003811115610d5857610d5861105d565b02179055506020820151815460089190911c6101000260ff90911617815560408201516001820190610d8a9082611154565b5060608201516002820190610d9f9082611154565b5060808201516003820190610db49082611154565b50506040518291507fca92336792c10b50b810ac19f70b30a57f87e8c0ce0f87c3d3183fd60cb8d111905f90a250565b5f8083601f840112610df4575f80fd5b50813567ffffffffffffffff811115610e0b575f80fd5b602083019150836020828501011115610e22575f80fd5b9250929050565b5f805f805f805f8060a0898b031215610e40575f80fd5b88359750602089013567ffffffffffffffff80821115610e5e575f80fd5b610e6a8c838d01610de4565b909950975060408b0135915080821115610e82575f80fd5b610e8e8c838d01610de4565b909750955060608b0135915080821115610ea6575f80fd5b50610eb38b828c01610de4565b90945092505060808901357fffffffffffffffffffffffffffffffffffffffffffffffffffffffffffffff0081168114610eeb575f80fd5b809150509295985092959890939650565b602080825282518282018190525f9190848201906040850190845b81811015610f3357835183529284019291840191600101610f17565b50909695505050505050565b5f60208284031215610f4f575f80fd5b813573ffffffffffffffffffffffffffffffffffffffff81168114610f72575f80fd5b9392505050565b5f60208284031215610f89575f80fd5b5035919050565b5f81518084525f5b81811015610fb457602081850181015186830182015201610f98565b505f6020828601015260207fffffffffffffffffffffffffffffffffffffffffffffffffffffffffffffffe0601f83011685010191505092915050565b608081525f6110036080830187610f90565b82810360208401526110158187610f90565b905082810360408401526110298186610f90565b9150507fffffffffffffffffffffffffffffffffffffffffffffffffffffffffffffff008316606083015295945050505050565b7f4e487b71000000000000000000000000000000000000000000000000000000005f52602160045260245ffd5b7f4e487b71000000000000000000000000000000000000000000000000000000005f52604160045260245ffd5b600181811c908216806110cb57607f821691505b602082108103611102577f4e487b71000000000000000000000000000000000000000000000000000000005f52602260045260245ffd5b50919050565b601f82111561114f57805f5260205f20601f840160051c8101602085101561112d5750805b601f840160051c820191505b8181101561114c575f8155600101611139565b50505b505050565b815167ffffffffffffffff81111561116e5761116e61108a565b6111828161117c84546110b7565b84611108565b602080601f8311600181146111d4575f841561119e5750858301515b7fffffffffffffffffffffffffffffffffffffffffffffffffffffffffffffffff600386901b1c1916600185901b178555611268565b5f858152602081207fffffffffffffffffffffffffffffffffffffffffffffffffffffffffffffffe08616915b8281101561122057888601518255948401946001909101908401611201565b508582101561125c57878501517fffffffffffffffffffffffffffffffffffffffffffffffffffffffffffffffff600388901b60f8161c191681555b505060018460011b0185555b505050505050565b81835281816020850137505f602082840101525f60207fffffffffffffffffffffffffffffffffffffffffffffffffffffffffffffffe0601f840116840101905092915050565b608081525f6112ca60808301898b611270565b82810360208401526112dd81888a611270565b905082810360408401526112f2818688611270565b9150507fffffffffffffffffffffffffffffffffffffffffffffffffffffffffffffff008316606083015298975050505050505050565b7f4e487b71000000000000000000000000000000000000000000000000000000005f52603260045260245ffd5b8181038181111561138e577f4e487b71000000000000000000000000000000000000000000000000000000005f52601160045260245ffd5b92915050565b7f4e487b71000000000000000000000000000000000000000000000000000000005f52603160045260245ffdfea2646970667358221220aa98b3796384d2f7ee92e11f794fde8b0d91b9d0bd72b64a6dc3bf75924a159164736f6c63430008170033",
    "linkReferences": {}
  },
  "methodIdentifiers": {
    "appoint(address)": "37f1a470",
    "carve(bytes32,string,string,string,bytes31)": "098e0770",
    "dismiss(address)": "e7bdd0bf",
    "gallery(uint256)": "db978ca5",
    "hide(bytes32)": "5ed78ed6",
    "officiants(address)": "e1d2a6ea",
    "peruse()": "1bda74b2",
    "publicize(bytes32)": "58e8600d",
    "read(bytes32)": "61da1439",
    "scratch(bytes32)": "fefe71e8"
  },
  "id": 0
}