{
  "abi": [
    {
      "type": "constructor",
      "inputs": [],
      "stateMutability": "nonpayable"
    },
    {
      "type": "function",
      "name": "appoint",
      "inputs": [
        {
          "name": "newOfficiant",
          "type": "address",
          "internalType": "address"
        }
      ],
      "outputs": [],
      "stateMutability": "nonpayable"
    },
    {
      "type": "function",
      "name": "carve",
      "inputs": [
        {
          "name": "carvingId",
          "type": "bytes32",
          "internalType": "bytes32"
        },
        {
          "name": "properties",
          "type": "bytes32",
          "internalType": "bytes32"
        },
        {
          "name": "message",
          "type": "string",
          "internalType": "string"
        },
        {
          "name": "signature",
          "type": "bytes",
          "internalType": "bytes"
        }
      ],
      "outputs": [],
      "stateMutability": "nonpayable"
    },
    {
      "type": "function",
      "name": "dismiss",
      "inputs": [
        {
          "name": "officiant",
          "type": "address",
          "internalType": "address"
        }
      ],
      "outputs": [],
      "stateMutability": "nonpayable"
    },
    {
      "type": "function",
      "name": "gallery",
      "inputs": [
        {
          "name": "",
          "type": "uint256",
          "internalType": "uint256"
        }
      ],
      "outputs": [
        {
          "name": "",
          "type": "bytes32",
          "internalType": "bytes32"
        }
      ],
      "stateMutability": "view"
    },
    {
      "type": "function",
      "name": "galleryNonces",
      "inputs": [
        {
          "name": "",
          "type": "bytes32",
          "internalType": "bytes32"
        }
      ],
      "outputs": [
        {
          "name": "",
          "type": "uint256",
          "internalType": "uint256"
        }
      ],
      "stateMutability": "view"
    },
    {
      "type": "function",
      "name": "hide",
      "inputs": [
        {
          "name": "carvingId",
          "type": "bytes32",
          "internalType": "bytes32"
        },
        {
          "name": "signature",
          "type": "bytes",
          "internalType": "bytes"
        }
      ],
      "outputs": [],
      "stateMutability": "nonpayable"
    },
    {
      "type": "function",
      "name": "officiants",
      "inputs": [
        {
          "name": "",
          "type": "address",
          "internalType": "address"
        }
      ],
      "outputs": [
        {
          "name": "",
          "type": "bool",
          "internalType": "bool"
        }
      ],
      "stateMutability": "view"
    },
    {
      "type": "function",
      "name": "peruse",
      "inputs": [],
      "outputs": [
        {
          "name": "",
          "type": "bytes32[]",
          "internalType": "bytes32[]"
        }
      ],
      "stateMutability": "view"
    },
    {
      "type": "function",
      "name": "publicize",
      "inputs": [
        {
          "name": "carvingId",
          "type": "bytes32",
          "internalType": "bytes32"
        },
        {
          "name": "signature",
          "type": "bytes",
          "internalType": "bytes"
        }
      ],
      "outputs": [],
      "stateMutability": "nonpayable"
    },
    {
      "type": "function",
      "name": "read",
      "inputs": [
        {
          "name": "carvingId",
          "type": "bytes32",
          "internalType": "bytes32"
        }
      ],
      "outputs": [
        {
          "name": "",
          "type": "bytes32",
          "internalType": "bytes32"
        },
        {
          "name": "",
          "type": "string",
          "internalType": "string"
        }
      ],
      "stateMutability": "view"
    },
    {
      "type": "function",
      "name": "scratch",
      "inputs": [
        {
          "name": "carvingId",
          "type": "bytes32",
          "internalType": "bytes32"
        },
        {
          "name": "signature",
          "type": "bytes",
          "internalType": "bytes"
        }
      ],
      "outputs": [],
      "stateMutability": "nonpayable"
    },
    {
      "type": "event",
      "name": "CarvingDeleted",
      "inputs": [
        {
          "name": "carvingId",
          "type": "bytes32",
          "indexed": true,
          "internalType": "bytes32"
        }
      ],
      "anonymous": false
    },
    {
      "type": "event",
      "name": "CarvingHidden",
      "inputs": [
        {
          "name": "carvingId",
          "type": "bytes32",
          "indexed": true,
          "internalType": "bytes32"
        }
      ],
      "anonymous": false
    },
    {
      "type": "event",
      "name": "CarvingPublicized",
      "inputs": [
        {
          "name": "carvingId",
          "type": "bytes32",
          "indexed": true,
          "internalType": "bytes32"
        }
      ],
      "anonymous": false
    },
    {
      "type": "event",
      "name": "CarvingStored",
      "inputs": [
        {
          "name": "carvingId",
          "type": "bytes32",
          "indexed": true,
          "internalType": "bytes32"
        },
        {
          "name": "properties",
          "type": "bytes32",
          "indexed": false,
          "internalType": "bytes32"
        },
        {
          "name": "message",
          "type": "string",
          "indexed": false,
          "internalType": "string"
        }
      ],
      "anonymous": false
    },
    {
      "type": "error",
      "name": "CannotDismissSelf",
      "inputs": []
    },
    {
      "type": "error",
      "name": "CarvingExists",
      "inputs": []
    },
    {
      "type": "error",
      "name": "CarvingNotFound",
      "inputs": []
    },
    {
      "type": "error",
      "name": "ECDSAInvalidSignature",
      "inputs": []
    },
    {
      "type": "error",
      "name": "ECDSAInvalidSignatureLength",
      "inputs": [
        {
          "name": "length",
          "type": "uint256",
          "internalType": "uint256"
        }
      ]
    },
    {
      "type": "error",
      "name": "ECDSAInvalidSignatureS",
      "inputs": [
        {
          "name": "s",
          "type": "bytes32",
          "internalType": "bytes32"
        }
      ]
    },
    {
      "type": "error",
      "name": "InvalidSignature",
      "inputs": []
    },
    {
      "type": "error",
      "name": "NotOfficiant",
      "inputs": []
    },
    {
      "type": "error",
      "name": "SignatureAlreadyUsed",
      "inputs": []
    }
  ],
  "bytecode": {
    "object": "0x608060405234801561000f575f80fd5b50335f908152600360205260409020805460ff1916600117905561151a806100365f395ff3fe608060405234801561000f575f80fd5b50600436106100c4575f3560e01c8063a7d6f9521161007d578063db978ca511610058578063db978ca514610195578063e1d2a6ea146101a8578063e7bdd0bf146101da575f80fd5b8063a7d6f95214610142578063a88df3bf14610155578063b343cce314610182575f80fd5b806360d55431116100ad57806360d55431146100fb57806361da14391461010e57806366f78ed21461012f575f80fd5b80631bda74b2146100c857806337f1a470146100e6575b5f80fd5b6100d06101ed565b6040516100dd9190610f55565b60405180910390f35b6100f96100f4366004610f98565b610243565b005b6100f96101093660046110ae565b6102d9565b61012161011c3660046110f2565b610434565b6040516100dd92919061112b565b6100f961013d3660046110ae565b61052a565b6100f9610150366004611182565b61062f565b6101746101633660046110f2565b60026020525f908152604090205481565b6040519081526020016100dd565b6100f96101903660046110ae565b61070a565b6101746101a33660046110f2565b6107c7565b6101ca6101b6366004610f98565b60036020525f908152604090205460ff1681565b60405190151581526020016100dd565b6100f96101e8366004610f98565b6107e6565b6060600180548060200260200160405190810160405280929190818152602001828054801561023957602002820191905f5260205f20905b815481526020019060010190808311610225575b5050505050905090565b335f9081526003602052604090205460ff1661028b576040517fd21a840800000000000000000000000000000000000000000000000000000000815260040160405180910390fd5b73ffffffffffffffffffffffffffffffffffffffff165f90815260036020526040902080547fffffffffffffffffffffffffffffffffffffffffffffffffffffffffffffff00166001179055565b335f9081526003602052604090205460ff16610321576040517fd21a840800000000000000000000000000000000000000000000000000000000815260040160405180910390fd5b61032b82826108c8565b5f5b6001548110156103fd57826001828154811061034b5761034b61120a565b905f5260205f200154036103f55760018054610368908290611264565b815481106103785761037861120a565b905f5260205f200154600182815481106103945761039461120a565b5f9182526020909120015560018054806103b0576103b0611277565b600190038181905f5260205f20015f90559055827fa32f4e0c54fde0bb877f983bfebc93952dbab5d27ae8fe7df71303f97dc71c1660405160405180910390a2505050565b60010161032d565b506040517f7fc0658a00000000000000000000000000000000000000000000000000000000815260040160405180910390fd5b5050565b5f8181526020819052604081206001810180546060929190610455906112a4565b90505f0361048f576040517f7fc0658a00000000000000000000000000000000000000000000000000000000815260040160405180910390fd5b805460018201805481906104a2906112a4565b80601f01602080910402602001604051908101604052809291908181526020018280546104ce906112a4565b80156105195780601f106104f057610100808354040283529160200191610519565b820191905f5260205f20905b8154815290600101906020018083116104fc57829003601f168201915b505050505090509250925050915091565b335f9081526003602052604090205460ff16610572576040517fd21a840800000000000000000000000000000000000000000000000000000000815260040160405180910390fd5b61057c82826108c8565b5f8281526020819052604090206001018054610597906112a4565b90505f036105d1576040517f7fc0658a00000000000000000000000000000000000000000000000000000000815260040160405180910390fd5b6001805480820182555f9182527fb10e2d527612073b26eecdfd717e6a320cf44b4afac2b0732d9fcbe2b7fa0cf60183905560405183917fc778bfccc786544197788f2e8340dabc434fd7b2f848e4438a06c7a8b4409e2291a25050565b61063b84848484610ab9565b5f8481526020819052604090206001018054610656906112a4565b15905061068f576040517fe931378c00000000000000000000000000000000000000000000000000000000815260040160405180910390fd5b60408051808201825284815260208082018581525f8881529182905292902081518155915190919060018201906106c69082611341565b50905050837fb42f4b0f4c0aa2df0035f0402ba30f064d6aacc23dc9d98d8c7ce16158c1664c84846040516106fc92919061112b565b60405180910390a250505050565b610724825f60405180602001604052805f81525084610ab9565b5f828152602081905260409020600101805461073f906112a4565b90505f03610779576040517f7fc0658a00000000000000000000000000000000000000000000000000000000815260040160405180910390fd5b5f828152602081905260408120818155906107976001830182610f03565b505060405182907fca92336792c10b50b810ac19f70b30a57f87e8c0ce0f87c3d3183fd60cb8d111905f90a25050565b600181815481106107d6575f80fd5b5f91825260209091200154905081565b335f9081526003602052604090205460ff1661082e576040517fd21a840800000000000000000000000000000000000000000000000000000000815260040160405180910390fd5b3373ffffffffffffffffffffffffffffffffffffffff82160361087d576040517f7d33962600000000000000000000000000000000000000000000000000000000815260040160405180910390fd5b73ffffffffffffffffffffffffffffffffffffffff165f90815260036020526040902080547fffffffffffffffffffffffffffffffffffffffffffffffffffffffffffffff00169055565b80515f0361091857335f9081526003602052604090205460ff16610430576040517fd21a840800000000000000000000000000000000000000000000000000000000815260040160405180910390fd5b5f8281526002602090815260408083205481518084018790528083018290528251808203840181526060909101909252815191909201207f19457468657265756d205369676e6564204d6573736167653a0a3332000000008352601c819052603c8320919290919061098a8286610c95565b73ffffffffffffffffffffffffffffffffffffffff81165f9081526003602052604090205490915060ff166109eb576040517f8baa579f00000000000000000000000000000000000000000000000000000000815260040160405180910390fd5b6004856040516109fb919061145d565b9081526040519081900360200190205460ff1615610a45576040517f900bb2c900000000000000000000000000000000000000000000000000000000815260040160405180910390fd5b6001600486604051610a57919061145d565b90815260405190819003602001902080549115157fffffffffffffffffffffffffffffffffffffffffffffffffffffffffffffff00909216919091179055610aa0846001611478565b5f96875260026020526040909620959095555050505050565b80515f03610b0e57335f9081526003602052604090205460ff16610b09576040517fd21a840800000000000000000000000000000000000000000000000000000000815260040160405180910390fd5b610c8f565b5f848484604051602001610b249392919061148b565b6040516020818303038152906040528051906020012090505f610b73827f19457468657265756d205369676e6564204d6573736167653a0a3332000000005f908152601c91909152603c902090565b90505f610b808285610c95565b73ffffffffffffffffffffffffffffffffffffffff81165f9081526003602052604090205490915060ff16610be1576040517f8baa579f00000000000000000000000000000000000000000000000000000000815260040160405180910390fd5b600484604051610bf1919061145d565b9081526040519081900360200190205460ff1615610c3b576040517f900bb2c900000000000000000000000000000000000000000000000000000000815260040160405180910390fd5b6001600485604051610c4d919061145d565b90815260405190819003602001902080549115157fffffffffffffffffffffffffffffffffffffffffffffffffffffffffffffff009092169190911790555050505b50505050565b5f805f80610ca38686610cbf565b925092509250610cb38282610d08565b50909150505b92915050565b5f805f8351604103610cf6576020840151604085015160608601515f1a610ce888828585610e10565b955095509550505050610d01565b505081515f91506002905b9250925092565b5f826003811115610d1b57610d1b6114b7565b03610d24575050565b6001826003811115610d3857610d386114b7565b03610d6f576040517ff645eedf00000000000000000000000000000000000000000000000000000000815260040160405180910390fd5b6002826003811115610d8357610d836114b7565b03610dc2576040517ffce698f7000000000000000000000000000000000000000000000000000000008152600481018290526024015b60405180910390fd5b6003826003811115610dd657610dd66114b7565b03610430576040517fd78bce0c00000000000000000000000000000000000000000000000000000000815260048101829052602401610db9565b5f80807f7fffffffffffffffffffffffffffffff5d576e7357a4501ddfe92f46681b20a0841115610e4957505f91506003905082610ef9565b604080515f808252602082018084528a905260ff891692820192909252606081018790526080810186905260019060a0016020604051602081039080840390855afa158015610e9a573d5f803e3d5ffd5b50506040517fffffffffffffffffffffffffffffffffffffffffffffffffffffffffffffffe0015191505073ffffffffffffffffffffffffffffffffffffffff8116610ef057505f925060019150829050610ef9565b92505f91508190505b9450945094915050565b508054610f0f906112a4565b5f825580601f10610f1e575050565b601f0160209004905f5260205f2090810190610f3a9190610f3d565b50565b5b80821115610f51575f8155600101610f3e565b5090565b602080825282518282018190525f9190848201906040850190845b81811015610f8c57835183529284019291840191600101610f70565b50909695505050505050565b5f60208284031215610fa8575f80fd5b813573ffffffffffffffffffffffffffffffffffffffff81168114610fcb575f80fd5b9392505050565b7f4e487b71000000000000000000000000000000000000000000000000000000005f52604160045260245ffd5b5f67ffffffffffffffff8084111561101957611019610fd2565b604051601f85017fffffffffffffffffffffffffffffffffffffffffffffffffffffffffffffffe0908116603f0116810190828211818310171561105f5761105f610fd2565b81604052809350858152868686011115611077575f80fd5b858560208301375f602087830101525050509392505050565b5f82601f83011261109f575f80fd5b610fcb83833560208501610fff565b5f80604083850312156110bf575f80fd5b82359150602083013567ffffffffffffffff8111156110dc575f80fd5b6110e885828601611090565b9150509250929050565b5f60208284031215611102575f80fd5b5035919050565b5f5b8381101561112357818101518382015260200161110b565b50505f910152565b828152604060208201525f825180604084015261114f816060850160208701611109565b601f017fffffffffffffffffffffffffffffffffffffffffffffffffffffffffffffffe016919091016060019392505050565b5f805f8060808587031215611195575f80fd5b8435935060208501359250604085013567ffffffffffffffff808211156111ba575f80fd5b818701915087601f8301126111cd575f80fd5b6111dc88833560208501610fff565b935060608701359150808211156111f1575f80fd5b506111fe87828801611090565b91505092959194509250565b7f4e487b71000000000000000000000000000000000000000000000000000000005f52603260045260245ffd5b7f4e487b71000000000000000000000000000000000000000000000000000000005f52601160045260245ffd5b81810381811115610cb957610cb9611237565b7f4e487b71000000000000000000000000000000000000000000000000000000005f52603160045260245ffd5b600181811c908216806112b857607f821691505b6020821081036112ef577f4e487b71000000000000000000000000000000000000000000000000000000005f52602260045260245ffd5b50919050565b601f82111561133c57805f5260205f20601f840160051c8101602085101561131a5750805b601f840160051c820191505b81811015611339575f8155600101611326565b50505b505050565b815167ffffffffffffffff81111561135b5761135b610fd2565b61136f8161136984546112a4565b846112f5565b602080601f8311600181146113c1575f841561138b5750858301515b7fffffffffffffffffffffffffffffffffffffffffffffffffffffffffffffffff600386901b1c1916600185901b178555611455565b5f858152602081207fffffffffffffffffffffffffffffffffffffffffffffffffffffffffffffffe08616915b8281101561140d578886015182559484019460019091019084016113ee565b508582101561144957878501517fffffffffffffffffffffffffffffffffffffffffffffffffffffffffffffffff600388901b60f8161c191681555b505060018460011b0185555b505050505050565b5f825161146e818460208701611109565b9190910192915050565b80820180821115610cb957610cb9611237565b8381528260208201525f82516114a8816040850160208701611109565b91909101604001949350505050565b7f4e487b71000000000000000000000000000000000000000000000000000000005f52602160045260245ffdfea2646970667358221220a3aa57108465dda6c6d83ca5f125f225ceeb4e1cf9dd3d2d6b71a90290af94a864736f6c63430008170033",
    "linkReferences": {}
  },
  "methodIdentifiers": {
    "appoint(address)": "37f1a470",
    "carve(bytes32,bytes32,string,bytes)": "a7d6f952",
    "dismiss(address)": "e7bdd0bf",
    "gallery(uint256)": "db978ca5",
    "galleryNonces(bytes32)": "a88df3bf",
    "hide(bytes32,bytes)": "60d55431",
    "officiants(address)": "e1d2a6ea",
    "peruse()": "1bda74b2",
    "publicize(bytes32,bytes)": "66f78ed2",
    "read(bytes32)": "61da1439",
    "scratch(bytes32,bytes)": "b343cce3"
  },
  "id": 27
}